{
  "contractName": "Asset",
  "abi": [
    {
      "constant": true,
      "inputs": [],
      "name": "owner",
      "outputs": [
        {
          "name": "",
          "type": "address"
        }
      ],
      "payable": false,
      "stateMutability": "view",
      "type": "function"
    },
    {
      "inputs": [],
      "payable": false,
      "stateMutability": "nonpayable",
      "type": "constructor"
    },
    {
      "anonymous": false,
      "inputs": [
        {
          "indexed": false,
          "name": "oldOwner",
          "type": "address"
        },
        {
          "indexed": false,
          "name": "newOwner",
          "type": "address"
        }
      ],
      "name": "changeOwnerEvent",
      "type": "event"
    },
    {
      "constant": false,
      "inputs": [
        {
          "name": "newOwner",
          "type": "address"
        }
      ],
      "name": "changeOwner",
      "outputs": [],
      "payable": false,
      "stateMutability": "nonpayable",
      "type": "function"
    }
  ],
  "bytecode": "0x608060405234801561001057600080fd5b50336000806101000a81548173ffffffffffffffffffffffffffffffffffffffff021916908373ffffffffffffffffffffffffffffffffffffffff160217905550610298806100606000396000f30060806040526004361061004c576000357c0100000000000000000000000000000000000000000000000000000000900463ffffffff1680638da5cb5b14610051578063a6f9dae1146100a8575b600080fd5b34801561005d57600080fd5b506100666100eb565b604051808273ffffffffffffffffffffffffffffffffffffffff1673ffffffffffffffffffffffffffffffffffffffff16815260200191505060405180910390f35b3480156100b457600080fd5b506100e9600480360381019080803573ffffffffffffffffffffffffffffffffffffffff169060200190929190505050610110565b005b6000809054906101000a900473ffffffffffffffffffffffffffffffffffffffff1681565b60003373ffffffffffffffffffffffffffffffffffffffff166000809054906101000a900473ffffffffffffffffffffffffffffffffffffffff1673ffffffffffffffffffffffffffffffffffffffff1614151561016d57600080fd5b6000809054906101000a900473ffffffffffffffffffffffffffffffffffffffff169050816000806101000a81548173ffffffffffffffffffffffffffffffffffffffff021916908373ffffffffffffffffffffffffffffffffffffffff1602179055507fd86a4a5e8400310b196328f1f5ee37964a7be6820e00bff5b0d6e788d68ef9c88183604051808373ffffffffffffffffffffffffffffffffffffffff1673ffffffffffffffffffffffffffffffffffffffff1681526020018273ffffffffffffffffffffffffffffffffffffffff1673ffffffffffffffffffffffffffffffffffffffff1681526020019250505060405180910390a150505600a165627a7a723058202286d1324cea5eff1ffd1474bdc877a7c91f59788e893f13cf00f7b20e874bcb0029",
  "source": "pragma solidity ^0.4.18;\n\n\ncontract Asset {\n\n    address public owner;\n    \n    event changeOwnerEvent(address oldOwner, address newOwner);\n\n    constructor() public {\n        owner = msg.sender;\n    }\n\n    function changeOwner(address newOwner) public {\n        require(owner == msg.sender);\n\n        address oldOwner = owner;\n        owner = newOwner;\n\n        emit changeOwnerEvent(oldOwner, newOwner);\n    }\n\n    /**\n    * The withdraw function, following the withdraw pattern shown and explained here:\n    * http://solidity.readthedocs.io/en/develop/common-patterns.html#withdrawal-from-contracts\n    */\n    // function withdraw() public {\n    //     require(gameFinished && theWinner == msg.sender);\n\n    //     uint amount = gains;\n\n    //     gains = 0;\n    //     msg.sender.transfer(amount);\n    // }\n}",
  "sourcePath": "/Users/zied/Projects/workshops/blockchain/ethereum/truffle/contracts/Asset.sol",
  "compiler": {
    "name": "solc",
    "version": "0.4.24+commit.e67f0147.Emscripten.clang"
  },
  "schemaVersion": "2.0.1",
  "updatedAt": "2018-10-17T20:54:01.412Z"
}