{
  "contractName": "Ownership",
  "abi": [
    {
      "inputs": [],
      "payable": false,
      "stateMutability": "nonpayable",
      "type": "constructor"
    },
    {
      "anonymous": false,
      "inputs": [
        {
          "indexed": false,
          "name": "oldOwner",
          "type": "address"
        },
        {
          "indexed": false,
          "name": "newOwner",
          "type": "address"
        }
      ],
      "name": "ownerChangedEvent",
      "type": "event"
    },
    {
      "constant": false,
      "inputs": [
        {
          "name": "id",
          "type": "uint256"
        }
      ],
      "name": "addAsset",
      "outputs": [],
      "payable": false,
      "stateMutability": "nonpayable",
      "type": "function"
    },
    {
      "constant": true,
      "inputs": [
        {
          "name": "id",
          "type": "uint256"
        }
      ],
      "name": "getAssetOwner",
      "outputs": [
        {
          "name": "",
          "type": "address"
        }
      ],
      "payable": false,
      "stateMutability": "view",
      "type": "function"
    },
    {
      "constant": false,
      "inputs": [
        {
          "name": "id",
          "type": "uint256"
        },
        {
          "name": "newOwner",
          "type": "address"
        }
      ],
      "name": "changeAssetOwner",
      "outputs": [],
      "payable": false,
      "stateMutability": "nonpayable",
      "type": "function"
    }
  ],
  "bytecode": "0x608060405234801561001057600080fd5b506102c0806100206000396000f300608060405260043610610057576000357c0100000000000000000000000000000000000000000000000000000000900463ffffffff1680630b71d2561461005c5780638d5802e21461008957806398aec4ed146100f6575b600080fd5b34801561006857600080fd5b5061008760048036038101908080359060200190929190505050610143565b005b34801561009557600080fd5b506100b460048036038101908080359060200190929190505050610197565b604051808273ffffffffffffffffffffffffffffffffffffffff1673ffffffffffffffffffffffffffffffffffffffff16815260200191505060405180910390f35b34801561010257600080fd5b5061014160048036038101908080359060200190929190803573ffffffffffffffffffffffffffffffffffffffff1690602001909291905050506101d3565b005b3360008083815260200190815260200160002060006101000a81548173ffffffffffffffffffffffffffffffffffffffff021916908373ffffffffffffffffffffffffffffffffffffffff16021790555050565b600080600083815260200190815260200160002060009054906101000a900473ffffffffffffffffffffffffffffffffffffffff169050919050565b3373ffffffffffffffffffffffffffffffffffffffff1660008084815260200190815260200160002060009054906101000a900473ffffffffffffffffffffffffffffffffffffffff1673ffffffffffffffffffffffffffffffffffffffff1614151561023f57600080fd5b8060008084815260200190815260200160002060006101000a81548173ffffffffffffffffffffffffffffffffffffffff021916908373ffffffffffffffffffffffffffffffffffffffff16021790555050505600a165627a7a72305820594a8ca7620730b9d5d208199bfc97b01f99e48b452a0e6b81699f12c29b2ec40029",
  "source": "pragma solidity ^0.4.18;\n\ncontract Ownership {\n    \n    mapping(uint => address) private assets;\n\n    event ownerChangedEvent(address oldOwner, address newOwner);\n\n    constructor() public {}\n    \n    function addAsset(uint id) public {\n        assets[id] = msg.sender;\n    }\n\n    function getAssetOwner(uint id) public view returns (address) {\n        return assets[id];\n    }\n\n    function changeAssetOwner(uint id, address newOwner) public {\n        require(assets[id] == msg.sender);\n        assets[id] = newOwner;\n    }\n}\n    /**\n    * The withdraw function, following the withdraw pattern shown and explained here:\n    * http://solidity.readthedocs.io/en/develop/common-patterns.html#withdrawal-from-contracts\n    */\n    // function withdraw() public {\n    //     require(gameFinished && theWinner == msg.sender);\n\n    //     uint amount = gains;\n\n    //     gains = 0;\n    //     msg.sender.transfer(amount);\n    // }",
  "sourcePath": "/Users/zied/Projects/workshops/blockchain/ethereum/truffle/contracts/Ownership.sol",
  "compiler": {
    "name": "solc",
    "version": "0.4.24+commit.e67f0147.Emscripten.clang"
  },
  "schemaVersion": "2.0.1",
  "updatedAt": "2018-10-25T22:06:00.138Z"
}